{
  "contractName": "VotacionContract",
  "abi": [
    {
      "inputs": [],
      "stateMutability": "nonpayable",
      "type": "constructor"
    },
    {
      "anonymous": false,
      "inputs": [
        {
          "indexed": false,
          "internalType": "uint256",
          "name": "id",
          "type": "uint256"
        },
        {
          "indexed": false,
          "internalType": "string",
          "name": "nombre",
          "type": "string"
        },
        {
          "indexed": false,
          "internalType": "string",
          "name": "descripcion",
          "type": "string"
        },
        {
          "indexed": false,
          "internalType": "uint256",
          "name": "fechaCreacion",
          "type": "uint256"
        },
        {
          "indexed": false,
          "internalType": "uint256",
          "name": "votos",
          "type": "uint256"
        }
      ],
      "name": "PersonasCreadas",
      "type": "event"
    },
    {
      "anonymous": false,
      "inputs": [
        {
          "indexed": false,
          "internalType": "uint256",
          "name": "id",
          "type": "uint256"
        },
        {
          "indexed": false,
          "internalType": "uint256",
          "name": "numeroVotos",
          "type": "uint256"
        },
        {
          "indexed": false,
          "internalType": "string",
          "name": "nombre",
          "type": "string"
        },
        {
          "indexed": false,
          "internalType": "address",
          "name": "addressFrom",
          "type": "address"
        }
      ],
      "name": "PersonasVotadas",
      "type": "event"
    },
    {
      "inputs": [],
      "name": "contadorDirecciones",
      "outputs": [
        {
          "internalType": "uint256",
          "name": "",
          "type": "uint256"
        }
      ],
      "stateMutability": "view",
      "type": "function",
      "constant": true
    },
    {
      "inputs": [],
      "name": "contadorParticipantes",
      "outputs": [
        {
          "internalType": "uint256",
          "name": "",
          "type": "uint256"
        }
      ],
      "stateMutability": "view",
      "type": "function",
      "constant": true
    },
    {
      "inputs": [
        {
          "internalType": "uint256",
          "name": "",
          "type": "uint256"
        }
      ],
      "name": "personas",
      "outputs": [
        {
          "internalType": "uint256",
          "name": "id",
          "type": "uint256"
        },
        {
          "internalType": "string",
          "name": "nombre",
          "type": "string"
        },
        {
          "internalType": "string",
          "name": "descripcion",
          "type": "string"
        },
        {
          "internalType": "uint256",
          "name": "fechaCreacion",
          "type": "uint256"
        },
        {
          "internalType": "uint256",
          "name": "votos",
          "type": "uint256"
        }
      ],
      "stateMutability": "view",
      "type": "function",
      "constant": true
    },
    {
      "inputs": [
        {
          "internalType": "string",
          "name": "nombre",
          "type": "string"
        },
        {
          "internalType": "string",
          "name": "descripcion",
          "type": "string"
        }
      ],
      "name": "crearPuesto",
      "outputs": [],
      "stateMutability": "nonpayable",
      "type": "function"
    },
    {
      "inputs": [
        {
          "internalType": "uint256",
          "name": "id",
          "type": "uint256"
        }
      ],
      "name": "votacionPersona",
      "outputs": [],
      "stateMutability": "nonpayable",
      "type": "function"
    }
  ],
  "bytecode": "0x60806040526000805560006001553480156200001a57600080fd5b506200007b6040518060400160405280600481526020017f5669636f00000000000000000000000000000000000000000000000000000000815250604051806080016040528060418152602001620011af60419139620001a160201b60201c565b620000db6040518060400160405280600981526020017f456c6f6e204d75736b00000000000000000000000000000000000000000000008152506040518060600160405280603e815260200162001171603e9139620001a160201b60201c565b6200013b6040518060400160405280600a81526020017f4a6566662042657a6f7300000000000000000000000000000000000000000000815250604051806080016040528060428152602001620011f060429139620001a160201b60201c565b6200019b6040518060400160405280600f81526020017f4d61726b205a75636b65726265726700000000000000000000000000000000008152506040518060600160405280603b815260200162001232603b9139620001a160201b60201c565b62000580565b600080815480929190620001b590620004c3565b91905055506040518060a00160405280600054815260200183815260200182815260200142815260200160008152506002600080548152602001908152602001600020600082015181600001556020820151816001019080519060200190620002209291906200029f565b5060408201518160020190805190602001906200023f9291906200029f565b5060608201518160030155608082015181600401559050507f9f0e1e543551b871e3cfd54e1456fc02ee473298fc506e26d7c167871304b118600054838342600060405162000293959493929190620003b2565b60405180910390a15050565b828054620002ad906200048d565b90600052602060002090601f016020900481019282620002d157600085556200031d565b82601f10620002ec57805160ff19168380011785556200031d565b828001600101855582156200031d579182015b828111156200031c578251825591602001919060010190620002ff565b5b5090506200032c919062000330565b5090565b5b808211156200034b57600081600090555060010162000331565b5090565b6200035a8162000443565b82525050565b60006200036d826200041d565b62000379818562000428565b93506200038b81856020860162000457565b62000396816200056f565b840191505092915050565b620003ac8162000439565b82525050565b600060a082019050620003c96000830188620003a1565b8181036020830152620003dd818762000360565b90508181036040830152620003f3818662000360565b9050620004046060830185620003a1565b6200041360808301846200034f565b9695505050505050565b600081519050919050565b600082825260208201905092915050565b6000819050919050565b6000620004508262000439565b9050919050565b60005b83811015620004775780820151818401526020810190506200045a565b8381111562000487576000848401525b50505050565b60006002820490506001821680620004a657607f821691505b60208210811415620004bd57620004bc62000540565b5b50919050565b6000620004d08262000439565b91507fffffffffffffffffffffffffffffffffffffffffffffffffffffffffffffffff82141562000506576200050562000511565b5b600182019050919050565b7f4e487b7100000000000000000000000000000000000000000000000000000000600052601160045260246000fd5b7f4e487b7100000000000000000000000000000000000000000000000000000000600052602260045260246000fd5b6000601f19601f8301169050919050565b610be180620005906000396000f3fe608060405234801561001057600080fd5b50600436106100575760003560e01c806340291e6a1461005c578063669973e8146100905780639375eeb1146100ac578063c0ff6631146100c8578063d18609e9146100e6575b600080fd5b61007660048036038101906100719190610722565b610104565b604051610087959493929190610831565b60405180910390f35b6100aa60048036038101906100a59190610722565b61024a565b005b6100c660048036038101906100c191906106aa565b610480565b005b6100d0610576565b6040516100dd91906107b5565b60405180910390f35b6100ee61057c565b6040516100fb91906107b5565b60405180910390f35b600260205280600052604060002060009150905080600001549080600101805461012d90610a36565b80601f016020809104026020016040519081016040528092919081815260200182805461015990610a36565b80156101a65780601f1061017b576101008083540402835291602001916101a6565b820191906000526020600020905b81548152906001019060200180831161018957829003601f168201915b5050505050908060020180546101bb90610a36565b80601f01602080910402602001604051908101604052809291908181526020018280546101e790610a36565b80156102345780601f1061020957610100808354040283529160200191610234565b820191906000526020600020905b81548152906001019060200180831161021757829003601f168201915b5050505050908060030154908060040154905085565b6000600260008381526020019081526020016000206040518060a00160405290816000820154815260200160018201805461028490610a36565b80601f01602080910402602001604051908101604052809291908181526020018280546102b090610a36565b80156102fd5780601f106102d2576101008083540402835291602001916102fd565b820191906000526020600020905b8154815290600101906020018083116102e057829003601f168201915b5050505050815260200160028201805461031690610a36565b80601f016020809104026020016040519081016040528092919081815260200182805461034290610a36565b801561038f5780601f106103645761010080835404028352916020019161038f565b820191906000526020600020905b81548152906001019060200180831161037257829003601f168201915b50505050508152602001600382015481526020016004820154815250509050600181608001516103bf9190610950565b8160800181815250508060026000848152602001908152602001600020600082015181600001556020820151816001019080519060200190610402929190610582565b50604082015181600201908051906020019061041f929190610582565b5060608201518160030155608082015181600401559050507f09e341ffc4ec3888b923c35a1afa6db40f19bd27906904df9d718418d161e6868282608001518360200151336040516104749493929190610892565b60405180910390a15050565b60008081548092919061049290610a99565b91905055506040518060a001604052806000548152602001838152602001828152602001428152602001600081525060026000805481526020019081526020016000206000820151816000015560208201518160010190805190602001906104fb929190610582565b506040820151816002019080519060200190610518929190610582565b5060608201518160030155608082015181600401559050507f9f0e1e543551b871e3cfd54e1456fc02ee473298fc506e26d7c167871304b118600054838342600060405161056a9594939291906107d0565b60405180910390a15050565b60015481565b60005481565b82805461058e90610a36565b90600052602060002090601f0160209004810192826105b057600085556105f7565b82601f106105c957805160ff19168380011785556105f7565b828001600101855582156105f7579182015b828111156105f65782518255916020019190600101906105db565b5b5090506106049190610608565b5090565b5b80821115610621576000816000905550600101610609565b5090565b600061063861063384610903565b6108de565b90508281526020810184848401111561065457610653610b74565b5b61065f8482856109f4565b509392505050565b600082601f83011261067c5761067b610b6f565b5b813561068c848260208601610625565b91505092915050565b6000813590506106a481610b94565b92915050565b600080604083850312156106c1576106c0610b7e565b5b600083013567ffffffffffffffff8111156106df576106de610b79565b5b6106eb85828601610667565b925050602083013567ffffffffffffffff81111561070c5761070b610b79565b5b61071885828601610667565b9150509250929050565b60006020828403121561073857610737610b7e565b5b600061074684828501610695565b91505092915050565b610758816109a6565b82525050565b610767816109e2565b82525050565b600061077882610934565b610782818561093f565b9350610792818560208601610a03565b61079b81610b83565b840191505092915050565b6107af816109d8565b82525050565b60006020820190506107ca60008301846107a6565b92915050565b600060a0820190506107e560008301886107a6565b81810360208301526107f7818761076d565b9050818103604083015261080b818661076d565b905061081a60608301856107a6565b610827608083018461075e565b9695505050505050565b600060a08201905061084660008301886107a6565b8181036020830152610858818761076d565b9050818103604083015261086c818661076d565b905061087b60608301856107a6565b61088860808301846107a6565b9695505050505050565b60006080820190506108a760008301876107a6565b6108b460208301866107a6565b81810360408301526108c6818561076d565b90506108d5606083018461074f565b95945050505050565b60006108e86108f9565b90506108f48282610a68565b919050565b6000604051905090565b600067ffffffffffffffff82111561091e5761091d610b40565b5b61092782610b83565b9050602081019050919050565b600081519050919050565b600082825260208201905092915050565b600061095b826109d8565b9150610966836109d8565b9250827fffffffffffffffffffffffffffffffffffffffffffffffffffffffffffffffff0382111561099b5761099a610ae2565b5b828201905092915050565b60006109b1826109b8565b9050919050565b600073ffffffffffffffffffffffffffffffffffffffff82169050919050565b6000819050919050565b60006109ed826109d8565b9050919050565b82818337600083830152505050565b60005b83811015610a21578082015181840152602081019050610a06565b83811115610a30576000848401525b50505050565b60006002820490506001821680610a4e57607f821691505b60208210811415610a6257610a61610b11565b5b50919050565b610a7182610b83565b810181811067ffffffffffffffff82111715610a9057610a8f610b40565b5b80604052505050565b6000610aa4826109d8565b91507fffffffffffffffffffffffffffffffffffffffffffffffffffffffffffffffff821415610ad757610ad6610ae2565b5b600182019050919050565b7f4e487b7100000000000000000000000000000000000000000000000000000000600052601160045260246000fd5b7f4e487b7100000000000000000000000000000000000000000000000000000000600052602260045260246000fd5b7f4e487b7100000000000000000000000000000000000000000000000000000000600052604160045260246000fd5b600080fd5b600080fd5b600080fd5b600080fd5b6000601f19601f8301169050919050565b610b9d816109d8565b8114610ba857600080fd5b5056fea2646970667358221220a3c31b6a32cae299f5d700c6f0480007b65f29e93e3873a96b420f8fa5dee63a64736f6c634300080600334d696c6c6f6e6172696f2079206c6964657220646520646976657273617320656d70726573617320636f6d6f206573205445534c412079205370616365584d61657374726f206465204441572c2070726f6772616d6163696f6e20656e204a6176612e2054616d6269656e206573204a656665206465204573747564696f73506572736f6e6120636f6e20756e2070617472696d6f6e696f206e65746f20646520323031206d696c6573206465206d696c6c6f6e657320646520646f6c61726573556e2070656c6967726f2070617261206c6120696e666f726d6163696f6e20707269766164612c2063726561646f722064652046616365426f6f6b",
  "immutableReferences": {},
  "source": "// SPDX-License-Identifier: MIT\r\npragma solidity ^0.8.6;\r\n\r\ncontract VotacionContract{\r\n\r\n    uint256 public contadorParticipantes = 0;\r\n    uint256 public contadorDirecciones = 0;\r\n\r\n    //Creo un puestos por defecto\r\n    constructor(){\r\n        crearPuesto(\"Vico\", \"Maestro de DAW, programacion en Java. Tambien es Jefe de Estudios\");\r\n        crearPuesto(\"Elon Musk\", \"Millonario y lider de diversas empresas como es TESLA y SpaceX\");\r\n        crearPuesto(\"Jeff Bezos\", \"Persona con un patrimonio neto de 201 miles de millones de dolares\");\r\n        crearPuesto(\"Mark Zuckerberg\", \"Un peligro para la informacion privada, creador de FaceBook\");\r\n    }\r\n\r\n    event PersonasCreadas(\r\n        uint256 id,\r\n        string nombre,\r\n        string descripcion,\r\n        uint256 fechaCreacion,\r\n        uint256 votos\r\n    );\r\n\r\n    event PersonasVotadas(\r\n        uint id, \r\n        uint256 numeroVotos, \r\n        string nombre,\r\n        address addressFrom\r\n    );\r\n\r\n    //Estructura de mi votacion\r\n    struct PersonasStruct{\r\n        uint256 id;\r\n        string nombre;\r\n        string descripcion;\r\n        uint256 fechaCreacion;\r\n        uint256 votos;\r\n    }\r\n\r\n    //mapping es como una lista con listas [0:{id=...},1:{id=..}]\r\n    mapping (uint256 => PersonasStruct) public personas;\r\n\r\n\r\n    //FUNCION PARA CREAR CANDIDATOS A SER VOTADOS\r\n    function crearPuesto(string memory nombre, string memory descripcion) public{\r\n        contadorParticipantes++;\r\n\r\n        personas[contadorParticipantes] = PersonasStruct(contadorParticipantes, nombre, descripcion,block.timestamp, 0);\r\n\r\n        emit PersonasCreadas(contadorParticipantes, nombre, descripcion,block.timestamp, 0);\r\n    }\r\n\r\n    //FUNCION PARA VOTACION\r\n    function votacionPersona(uint256 id) public{\r\n        PersonasStruct memory personaMod = personas[id];\r\n        \r\n        personaMod.votos = personaMod.votos + 1;\r\n\r\n        personas[id] = personaMod;\r\n\r\n\r\n        emit PersonasVotadas(id, personaMod.votos, personaMod.nombre, msg.sender);\r\n\r\n    }\r\n\r\n}",
  "sourcePath": "C:\\Users\\jesus\\Desktop\\Project DAPP\\contracts\\VotacionContract.sol",
  "compiler": {
    "name": "solc",
    "version": "0.8.6+commit.11564f7e.Emscripten.clang"
  },
  "schemaVersion": "3.4.3",
  "updatedAt": "2021-11-17T12:38:53.298Z",
  "networkType": "ethereum",
  "devdoc": {
    "kind": "dev",
    "methods": {},
    "version": 1
  },
  "userdoc": {
    "kind": "user",
    "methods": {},
    "version": 1
  }
}