{
  "contractName": "VotacionContract",
  "abi": [
    {
      "inputs": [],
      "stateMutability": "nonpayable",
      "type": "constructor"
    },
    {
      "anonymous": false,
      "inputs": [
        {
          "indexed": false,
          "internalType": "uint256",
          "name": "id",
          "type": "uint256"
        },
        {
          "indexed": false,
          "internalType": "string",
          "name": "nombre",
          "type": "string"
        },
        {
          "indexed": false,
          "internalType": "string",
          "name": "descripcion",
          "type": "string"
        },
        {
          "indexed": false,
          "internalType": "uint256",
          "name": "fechaCreacion",
          "type": "uint256"
        },
        {
          "indexed": false,
          "internalType": "uint256",
          "name": "votos",
          "type": "uint256"
        }
      ],
      "name": "PersonasCreadas",
      "type": "event"
    },
    {
      "anonymous": false,
      "inputs": [
        {
          "indexed": false,
          "internalType": "uint256",
          "name": "id",
          "type": "uint256"
        },
        {
          "indexed": false,
          "internalType": "uint256",
          "name": "numeroVotos",
          "type": "uint256"
        },
        {
          "indexed": false,
          "internalType": "string",
          "name": "nombre",
          "type": "string"
        }
      ],
      "name": "PersonasVotadas",
      "type": "event"
    },
    {
      "inputs": [],
      "name": "contadorParticipantes",
      "outputs": [
        {
          "internalType": "uint256",
          "name": "",
          "type": "uint256"
        }
      ],
      "stateMutability": "view",
      "type": "function",
      "constant": true
    },
    {
      "inputs": [
        {
          "internalType": "uint256",
          "name": "",
          "type": "uint256"
        }
      ],
      "name": "personas",
      "outputs": [
        {
          "internalType": "uint256",
          "name": "id",
          "type": "uint256"
        },
        {
          "internalType": "string",
          "name": "nombre",
          "type": "string"
        },
        {
          "internalType": "string",
          "name": "descripcion",
          "type": "string"
        },
        {
          "internalType": "uint256",
          "name": "fechaCreacion",
          "type": "uint256"
        },
        {
          "internalType": "uint256",
          "name": "votos",
          "type": "uint256"
        }
      ],
      "stateMutability": "view",
      "type": "function",
      "constant": true
    },
    {
      "inputs": [
        {
          "internalType": "string",
          "name": "nombre",
          "type": "string"
        },
        {
          "internalType": "string",
          "name": "descripcion",
          "type": "string"
        }
      ],
      "name": "crearPuesto",
      "outputs": [],
      "stateMutability": "nonpayable",
      "type": "function"
    },
    {
      "inputs": [
        {
          "internalType": "uint256",
          "name": "id",
          "type": "uint256"
        }
      ],
      "name": "votacionPersona",
      "outputs": [],
      "stateMutability": "nonpayable",
      "type": "function"
    }
  ],
  "bytecode": "0x6080604052600080553480156200001557600080fd5b50620000766040518060400160405280600481526020017f5669636f000000000000000000000000000000000000000000000000000000008152506040518060800160405280604181526020016200112a604191396200019c60201b60201c565b620000d66040518060400160405280600981526020017f456c6f6e204d75736b00000000000000000000000000000000000000000000008152506040518060600160405280603e8152602001620010ec603e91396200019c60201b60201c565b620001366040518060400160405280600a81526020017f4a6566662042657a6f73000000000000000000000000000000000000000000008152506040518060800160405280604281526020016200116b604291396200019c60201b60201c565b620001966040518060400160405280600f81526020017f4d61726b205a75636b65726265726700000000000000000000000000000000008152506040518060600160405280603b8152602001620011ad603b91396200019c60201b60201c565b6200057b565b600080815480929190620001b090620004be565b91905055506040518060a001604052806000548152602001838152602001828152602001428152602001600081525060016000805481526020019081526020016000206000820151816000015560208201518160010190805190602001906200021b9291906200029a565b5060408201518160020190805190602001906200023a9291906200029a565b5060608201518160030155608082015181600401559050507f9f0e1e543551b871e3cfd54e1456fc02ee473298fc506e26d7c167871304b11860005483834260006040516200028e959493929190620003ad565b60405180910390a15050565b828054620002a89062000488565b90600052602060002090601f016020900481019282620002cc576000855562000318565b82601f10620002e757805160ff191683800117855562000318565b8280016001018555821562000318579182015b8281111562000317578251825591602001919060010190620002fa565b5b5090506200032791906200032b565b5090565b5b80821115620003465760008160009055506001016200032c565b5090565b62000355816200043e565b82525050565b6000620003688262000418565b62000374818562000423565b93506200038681856020860162000452565b62000391816200056a565b840191505092915050565b620003a78162000434565b82525050565b600060a082019050620003c460008301886200039c565b8181036020830152620003d881876200035b565b90508181036040830152620003ee81866200035b565b9050620003ff60608301856200039c565b6200040e60808301846200034a565b9695505050505050565b600081519050919050565b600082825260208201905092915050565b6000819050919050565b60006200044b8262000434565b9050919050565b60005b838110156200047257808201518184015260208101905062000455565b8381111562000482576000848401525b50505050565b60006002820490506001821680620004a157607f821691505b60208210811415620004b857620004b76200053b565b5b50919050565b6000620004cb8262000434565b91507fffffffffffffffffffffffffffffffffffffffffffffffffffffffffffffffff8214156200050157620005006200050c565b5b600182019050919050565b7f4e487b7100000000000000000000000000000000000000000000000000000000600052601160045260246000fd5b7f4e487b7100000000000000000000000000000000000000000000000000000000600052602260045260246000fd5b6000601f19601f8301169050919050565b610b61806200058b6000396000f3fe608060405234801561001057600080fd5b506004361061004c5760003560e01c806340291e6a14610051578063669973e8146100855780639375eeb1146100a1578063d18609e9146100bd575b600080fd5b61006b600480360381019061006691906106f1565b6100db565b60405161007c9594939291906107f1565b60405180910390f35b61009f600480360381019061009a91906106f1565b610221565b005b6100bb60048036038101906100b69190610679565b610455565b005b6100c561054b565b6040516100d29190610775565b60405180910390f35b6001602052806000526040600020600091509050806000015490806001018054610104906109b6565b80601f0160208091040260200160405190810160405280929190818152602001828054610130906109b6565b801561017d5780601f106101525761010080835404028352916020019161017d565b820191906000526020600020905b81548152906001019060200180831161016057829003601f168201915b505050505090806002018054610192906109b6565b80601f01602080910402602001604051908101604052809291908181526020018280546101be906109b6565b801561020b5780601f106101e05761010080835404028352916020019161020b565b820191906000526020600020905b8154815290600101906020018083116101ee57829003601f168201915b5050505050908060030154908060040154905085565b6000600160008381526020019081526020016000206040518060a00160405290816000820154815260200160018201805461025b906109b6565b80601f0160208091040260200160405190810160405280929190818152602001828054610287906109b6565b80156102d45780601f106102a9576101008083540402835291602001916102d4565b820191906000526020600020905b8154815290600101906020018083116102b757829003601f168201915b505050505081526020016002820180546102ed906109b6565b80601f0160208091040260200160405190810160405280929190818152602001828054610319906109b6565b80156103665780601f1061033b57610100808354040283529160200191610366565b820191906000526020600020905b81548152906001019060200180831161034957829003601f168201915b50505050508152602001600382015481526020016004820154815250509050600181608001516103969190610902565b81608001818152505080600160008481526020019081526020016000206000820151816000015560208201518160010190805190602001906103d9929190610551565b5060408201518160020190805190602001906103f6929190610551565b5060608201518160030155608082015181600401559050507fcedb9c98fd6b4cca2fe389f719391ce8cd0e8ccc1f3f27d99c60aa1ccab160b9828260800151836020015160405161044993929190610852565b60405180910390a15050565b60008081548092919061046790610a19565b91905055506040518060a001604052806000548152602001838152602001828152602001428152602001600081525060016000805481526020019081526020016000206000820151816000015560208201518160010190805190602001906104d0929190610551565b5060408201518160020190805190602001906104ed929190610551565b5060608201518160030155608082015181600401559050507f9f0e1e543551b871e3cfd54e1456fc02ee473298fc506e26d7c167871304b118600054838342600060405161053f959493929190610790565b60405180910390a15050565b60005481565b82805461055d906109b6565b90600052602060002090601f01602090048101928261057f57600085556105c6565b82601f1061059857805160ff19168380011785556105c6565b828001600101855582156105c6579182015b828111156105c55782518255916020019190600101906105aa565b5b5090506105d391906105d7565b5090565b5b808211156105f05760008160009055506001016105d8565b5090565b6000610607610602846108b5565b610890565b90508281526020810184848401111561062357610622610af4565b5b61062e848285610974565b509392505050565b600082601f83011261064b5761064a610aef565b5b813561065b8482602086016105f4565b91505092915050565b60008135905061067381610b14565b92915050565b600080604083850312156106905761068f610afe565b5b600083013567ffffffffffffffff8111156106ae576106ad610af9565b5b6106ba85828601610636565b925050602083013567ffffffffffffffff8111156106db576106da610af9565b5b6106e785828601610636565b9150509250929050565b60006020828403121561070757610706610afe565b5b600061071584828501610664565b91505092915050565b61072781610962565b82525050565b6000610738826108e6565b61074281856108f1565b9350610752818560208601610983565b61075b81610b03565b840191505092915050565b61076f81610958565b82525050565b600060208201905061078a6000830184610766565b92915050565b600060a0820190506107a56000830188610766565b81810360208301526107b7818761072d565b905081810360408301526107cb818661072d565b90506107da6060830185610766565b6107e7608083018461071e565b9695505050505050565b600060a0820190506108066000830188610766565b8181036020830152610818818761072d565b9050818103604083015261082c818661072d565b905061083b6060830185610766565b6108486080830184610766565b9695505050505050565b60006060820190506108676000830186610766565b6108746020830185610766565b8181036040830152610886818461072d565b9050949350505050565b600061089a6108ab565b90506108a682826109e8565b919050565b6000604051905090565b600067ffffffffffffffff8211156108d0576108cf610ac0565b5b6108d982610b03565b9050602081019050919050565b600081519050919050565b600082825260208201905092915050565b600061090d82610958565b915061091883610958565b9250827fffffffffffffffffffffffffffffffffffffffffffffffffffffffffffffffff0382111561094d5761094c610a62565b5b828201905092915050565b6000819050919050565b600061096d82610958565b9050919050565b82818337600083830152505050565b60005b838110156109a1578082015181840152602081019050610986565b838111156109b0576000848401525b50505050565b600060028204905060018216806109ce57607f821691505b602082108114156109e2576109e1610a91565b5b50919050565b6109f182610b03565b810181811067ffffffffffffffff82111715610a1057610a0f610ac0565b5b80604052505050565b6000610a2482610958565b91507fffffffffffffffffffffffffffffffffffffffffffffffffffffffffffffffff821415610a5757610a56610a62565b5b600182019050919050565b7f4e487b7100000000000000000000000000000000000000000000000000000000600052601160045260246000fd5b7f4e487b7100000000000000000000000000000000000000000000000000000000600052602260045260246000fd5b7f4e487b7100000000000000000000000000000000000000000000000000000000600052604160045260246000fd5b600080fd5b600080fd5b600080fd5b600080fd5b6000601f19601f8301169050919050565b610b1d81610958565b8114610b2857600080fd5b5056fea2646970667358221220d1058592a4580e20a55ad7aa747eabd7df2b5d6bd4433ebafd34c1259fedc02b64736f6c634300080600334d696c6c6f6e6172696f2079206c6964657220646520646976657273617320656d70726573617320636f6d6f206573205445534c412079205370616365584d61657374726f206465204441572c2070726f6772616d6163696f6e20656e204a6176612e2054616d6269656e206573204a656665206465204573747564696f73506572736f6e6120636f6e20756e2070617472696d6f6e696f206e65746f20646520323031206d696c6573206465206d696c6c6f6e657320646520646f6c61726573556e2070656c6967726f2070617261206c6120696e666f726d6163696f6e20707269766164612c2063726561646f722064652046616365426f6f6b",
  "immutableReferences": {},
  "source": "// SPDX-License-Identifier: MIT\r\npragma solidity ^0.8.6;\r\n\r\ncontract VotacionContract{\r\n\r\n    uint256 public contadorParticipantes = 0;\r\n\r\n    //Creo un puestos por defecto\r\n    constructor(){\r\n        crearPuesto(\"Vico\", \"Maestro de DAW, programacion en Java. Tambien es Jefe de Estudios\");\r\n        crearPuesto(\"Elon Musk\", \"Millonario y lider de diversas empresas como es TESLA y SpaceX\");\r\n        crearPuesto(\"Jeff Bezos\", \"Persona con un patrimonio neto de 201 miles de millones de dolares\");\r\n        crearPuesto(\"Mark Zuckerberg\", \"Un peligro para la informacion privada, creador de FaceBook\");\r\n    }\r\n\r\n    event PersonasCreadas(\r\n        uint256 id,\r\n        string nombre,\r\n        string descripcion,\r\n        uint256 fechaCreacion,\r\n        uint256 votos\r\n    );\r\n\r\n    event PersonasVotadas(uint id, uint256 numeroVotos, string nombre);\r\n\r\n    //Estructura de mi votacion\r\n    struct PersonasStruct{\r\n        uint256 id;\r\n        string nombre;\r\n        string descripcion;\r\n        uint256 fechaCreacion;\r\n        uint256 votos;\r\n    }\r\n\r\n    //mapping es como una lista con listas [0:{id=...},1:{id=..}]\r\n    mapping (uint256 => PersonasStruct) public personas;\r\n\r\n\r\n    //FUNCION PARA CREAR CANDIDATOS A SER VOTADOS\r\n    function crearPuesto(string memory nombre, string memory descripcion) public{\r\n        contadorParticipantes++;\r\n\r\n        personas[contadorParticipantes] = PersonasStruct(contadorParticipantes, nombre, descripcion,block.timestamp, 0);\r\n\r\n        emit PersonasCreadas(contadorParticipantes, nombre, descripcion,block.timestamp, 0);\r\n    }\r\n\r\n    //FUNCION PARA VOTACION\r\n    function votacionPersona(uint256 id) public{\r\n        PersonasStruct memory personaMod = personas[id];\r\n\r\n        personaMod.votos = personaMod.votos + 1;\r\n\r\n        personas[id] = personaMod;\r\n\r\n        emit PersonasVotadas(id, personaMod.votos, personaMod.nombre);\r\n\r\n    }\r\n\r\n\r\n}",
  "sourcePath": "C:\\Users\\jesus\\Desktop\\Project DAPP\\contracts\\VotacionContract.sol",
  "compiler": {
    "name": "solc",
    "version": "0.8.6+commit.11564f7e.Emscripten.clang"
  },
  "schemaVersion": "3.4.3",
  "updatedAt": "2021-11-16T19:58:45.401Z",
  "networkType": "ethereum",
  "devdoc": {
    "kind": "dev",
    "methods": {},
    "version": 1
  },
  "userdoc": {
    "kind": "user",
    "methods": {},
    "version": 1
  }
}