{
  "contractName": "VotacionContract",
  "abi": [
    {
      "inputs": [],
      "stateMutability": "nonpayable",
      "type": "constructor"
    },
    {
      "anonymous": false,
      "inputs": [
        {
          "indexed": false,
          "internalType": "uint256",
          "name": "id",
          "type": "uint256"
        },
        {
          "indexed": false,
          "internalType": "string",
          "name": "nombre",
          "type": "string"
        },
        {
          "indexed": false,
          "internalType": "string",
          "name": "descripcion",
          "type": "string"
        },
        {
          "indexed": false,
          "internalType": "uint256",
          "name": "fechaCreacion",
          "type": "uint256"
        },
        {
          "indexed": false,
          "internalType": "uint256",
          "name": "votos",
          "type": "uint256"
        }
      ],
      "name": "PersonasCreadas",
      "type": "event"
    },
    {
      "anonymous": false,
      "inputs": [
        {
          "indexed": false,
          "internalType": "uint256",
          "name": "id",
          "type": "uint256"
        },
        {
          "indexed": false,
          "internalType": "uint256",
          "name": "numeroVotos",
          "type": "uint256"
        },
        {
          "indexed": false,
          "internalType": "string",
          "name": "nombre",
          "type": "string"
        },
        {
          "indexed": false,
          "internalType": "address",
          "name": "addressFrom",
          "type": "address"
        }
      ],
      "name": "PersonasVotadas",
      "type": "event"
    },
    {
      "inputs": [
        {
          "internalType": "uint256",
          "name": "",
          "type": "uint256"
        }
      ],
      "name": "addressAll",
      "outputs": [
        {
          "internalType": "address",
          "name": "addressAccount",
          "type": "address"
        }
      ],
      "stateMutability": "view",
      "type": "function",
      "constant": true
    },
    {
      "inputs": [],
      "name": "contadorAddress",
      "outputs": [
        {
          "internalType": "uint256",
          "name": "",
          "type": "uint256"
        }
      ],
      "stateMutability": "view",
      "type": "function",
      "constant": true
    },
    {
      "inputs": [],
      "name": "contadorParticipantes",
      "outputs": [
        {
          "internalType": "uint256",
          "name": "",
          "type": "uint256"
        }
      ],
      "stateMutability": "view",
      "type": "function",
      "constant": true
    },
    {
      "inputs": [
        {
          "internalType": "uint256",
          "name": "",
          "type": "uint256"
        }
      ],
      "name": "personas",
      "outputs": [
        {
          "internalType": "uint256",
          "name": "id",
          "type": "uint256"
        },
        {
          "internalType": "string",
          "name": "nombre",
          "type": "string"
        },
        {
          "internalType": "string",
          "name": "descripcion",
          "type": "string"
        },
        {
          "internalType": "uint256",
          "name": "fechaCreacion",
          "type": "uint256"
        },
        {
          "internalType": "uint256",
          "name": "votos",
          "type": "uint256"
        }
      ],
      "stateMutability": "view",
      "type": "function",
      "constant": true
    },
    {
      "inputs": [
        {
          "internalType": "address",
          "name": "",
          "type": "address"
        }
      ],
      "name": "votosAddress",
      "outputs": [
        {
          "internalType": "address",
          "name": "addressAccount",
          "type": "address"
        },
        {
          "internalType": "bool",
          "name": "voto",
          "type": "bool"
        }
      ],
      "stateMutability": "view",
      "type": "function",
      "constant": true
    },
    {
      "inputs": [
        {
          "internalType": "string",
          "name": "nombre",
          "type": "string"
        },
        {
          "internalType": "string",
          "name": "descripcion",
          "type": "string"
        }
      ],
      "name": "crearPuesto",
      "outputs": [],
      "stateMutability": "nonpayable",
      "type": "function"
    },
    {
      "inputs": [
        {
          "internalType": "uint256",
          "name": "id",
          "type": "uint256"
        }
      ],
      "name": "votacionPersona",
      "outputs": [],
      "stateMutability": "nonpayable",
      "type": "function"
    },
    {
      "inputs": [
        {
          "internalType": "address",
          "name": "direccion",
          "type": "address"
        }
      ],
      "name": "addAddress",
      "outputs": [],
      "stateMutability": "nonpayable",
      "type": "function"
    },
    {
      "inputs": [
        {
          "internalType": "address",
          "name": "direccion",
          "type": "address"
        }
      ],
      "name": "recoverAllAddress",
      "outputs": [],
      "stateMutability": "nonpayable",
      "type": "function"
    }
  ],
  "bytecode": "0x60806040526000805560006001553480156200001a57600080fd5b506200007b6040518060400160405280600481526020017f5669636f000000000000000000000000000000000000000000000000000000008152506040518060800160405280604181526020016200155660419139620001a160201b60201c565b620000db6040518060400160405280600981526020017f456c6f6e204d75736b00000000000000000000000000000000000000000000008152506040518060600160405280603e815260200162001518603e9139620001a160201b60201c565b6200013b6040518060400160405280600a81526020017f4a6566662042657a6f73000000000000000000000000000000000000000000008152506040518060800160405280604281526020016200159760429139620001a160201b60201c565b6200019b6040518060400160405280600f81526020017f4d61726b205a75636b65726265726700000000000000000000000000000000008152506040518060600160405280603b8152602001620015d9603b9139620001a160201b60201c565b62000580565b600080815480929190620001b590620004c3565b91905055506040518060a00160405280600054815260200183815260200182815260200142815260200160008152506004600080548152602001908152602001600020600082015181600001556020820151816001019080519060200190620002209291906200029f565b5060408201518160020190805190602001906200023f9291906200029f565b5060608201518160030155608082015181600401559050507f9f0e1e543551b871e3cfd54e1456fc02ee473298fc506e26d7c167871304b118600054838342600060405162000293959493929190620003b2565b60405180910390a15050565b828054620002ad906200048d565b90600052602060002090601f016020900481019282620002d157600085556200031d565b82601f10620002ec57805160ff19168380011785556200031d565b828001600101855582156200031d579182015b828111156200031c578251825591602001919060010190620002ff565b5b5090506200032c919062000330565b5090565b5b808211156200034b57600081600090555060010162000331565b5090565b6200035a8162000443565b82525050565b60006200036d826200041d565b62000379818562000428565b93506200038b81856020860162000457565b62000396816200056f565b840191505092915050565b620003ac8162000439565b82525050565b600060a082019050620003c96000830188620003a1565b8181036020830152620003dd818762000360565b90508181036040830152620003f3818662000360565b9050620004046060830185620003a1565b6200041360808301846200034f565b9695505050505050565b600081519050919050565b600082825260208201905092915050565b6000819050919050565b6000620004508262000439565b9050919050565b60005b83811015620004775780820151818401526020810190506200045a565b8381111562000487576000848401525b50505050565b60006002820490506001821680620004a657607f821691505b60208210811415620004bd57620004bc62000540565b5b50919050565b6000620004d08262000439565b91507fffffffffffffffffffffffffffffffffffffffffffffffffffffffffffffffff82141562000506576200050562000511565b5b600182019050919050565b7f4e487b7100000000000000000000000000000000000000000000000000000000600052601160045260246000fd5b7f4e487b7100000000000000000000000000000000000000000000000000000000600052602260045260246000fd5b6000601f19601f8301169050919050565b610f8880620005906000396000f3fe608060405234801561001057600080fd5b50600436106100935760003560e01c80636dea1aa7116100665780636dea1aa7146101345780639375eeb114610152578063c6deeeb21461016e578063cb034dc11461019f578063d18609e9146101bb57610093565b806302fec9071461009857806338eada1c146100c857806340291e6a146100e4578063669973e814610118575b600080fd5b6100b260048036038101906100ad9190610a53565b6101d9565b6040516100bf9190610af5565b60405180910390f35b6100e260048036038101906100dd91906109ae565b610217565b005b6100fe60048036038101906100f99190610a53565b6102fa565b60405161010f959493929190610bb5565b60405180910390f35b610132600480360381019061012d9190610a53565b610440565b005b61013c61067f565b6040516101499190610b39565b60405180910390f35b61016c600480360381019061016791906109db565b610685565b005b610188600480360381019061018391906109ae565b61077b565b604051610196929190610b10565b60405180910390f35b6101b960048036038101906101b491906109ae565b6107cc565b005b6101c361086b565b6040516101d09190610b39565b60405180910390f35b60026020528060005260406000206000915090508060000160009054906101000a900473ffffffffffffffffffffffffffffffffffffffff16905081565b60405180604001604052808273ffffffffffffffffffffffffffffffffffffffff16815260200160011515815250600360008373ffffffffffffffffffffffffffffffffffffffff1673ffffffffffffffffffffffffffffffffffffffff16815260200190815260200160002060008201518160000160006101000a81548173ffffffffffffffffffffffffffffffffffffffff021916908373ffffffffffffffffffffffffffffffffffffffff16021790555060208201518160000160146101000a81548160ff0219169083151502179055509050506102f7816107cc565b50565b600460205280600052604060002060009150905080600001549080600101805461032390610dc6565b80601f016020809104026020016040519081016040528092919081815260200182805461034f90610dc6565b801561039c5780601f106103715761010080835404028352916020019161039c565b820191906000526020600020905b81548152906001019060200180831161037f57829003601f168201915b5050505050908060020180546103b190610dc6565b80601f01602080910402602001604051908101604052809291908181526020018280546103dd90610dc6565b801561042a5780601f106103ff5761010080835404028352916020019161042a565b820191906000526020600020905b81548152906001019060200180831161040d57829003601f168201915b5050505050908060030154908060040154905085565b6000600460008381526020019081526020016000206040518060a00160405290816000820154815260200160018201805461047a90610dc6565b80601f01602080910402602001604051908101604052809291908181526020018280546104a690610dc6565b80156104f35780601f106104c8576101008083540402835291602001916104f3565b820191906000526020600020905b8154815290600101906020018083116104d657829003601f168201915b5050505050815260200160028201805461050c90610dc6565b80601f016020809104026020016040519081016040528092919081815260200182805461053890610dc6565b80156105855780601f1061055a57610100808354040283529160200191610585565b820191906000526020600020905b81548152906001019060200180831161056857829003601f168201915b50505050508152602001600382015481526020016004820154815250509050600181608001516105b59190610cd4565b81608001818152505080600460008481526020019081526020016000206000820151816000015560208201518160010190805190602001906105f8929190610871565b506040820151816002019080519060200190610615929190610871565b5060608201518160030155608082015181600401559050507f09e341ffc4ec3888b923c35a1afa6db40f19bd27906904df9d718418d161e68682826080015183602001513360405161066a9493929190610c16565b60405180910390a161067b33610217565b5050565b60015481565b60008081548092919061069790610e29565b91905055506040518060a00160405280600054815260200183815260200182815260200142815260200160008152506004600080548152602001908152602001600020600082015181600001556020820151816001019080519060200190610700929190610871565b50604082015181600201908051906020019061071d929190610871565b5060608201518160030155608082015181600401559050507f9f0e1e543551b871e3cfd54e1456fc02ee473298fc506e26d7c167871304b118600054838342600060405161076f959493929190610b54565b60405180910390a15050565b60036020528060005260406000206000915090508060000160009054906101000a900473ffffffffffffffffffffffffffffffffffffffff16908060000160149054906101000a900460ff16905082565b600160008154809291906107df90610e29565b919050555060405180602001604052808273ffffffffffffffffffffffffffffffffffffffff1681525060026000600154815260200190815260200160002060008201518160000160006101000a81548173ffffffffffffffffffffffffffffffffffffffff021916908373ffffffffffffffffffffffffffffffffffffffff16021790555090505050565b60005481565b82805461087d90610dc6565b90600052602060002090601f01602090048101928261089f57600085556108e6565b82601f106108b857805160ff19168380011785556108e6565b828001600101855582156108e6579182015b828111156108e55782518255916020019190600101906108ca565b5b5090506108f391906108f7565b5090565b5b808211156109105760008160009055506001016108f8565b5090565b600061092761092284610c87565b610c62565b90508281526020810184848401111561094357610942610f04565b5b61094e848285610d84565b509392505050565b60008135905061096581610f24565b92915050565b600082601f8301126109805761097f610eff565b5b8135610990848260208601610914565b91505092915050565b6000813590506109a881610f3b565b92915050565b6000602082840312156109c4576109c3610f0e565b5b60006109d284828501610956565b91505092915050565b600080604083850312156109f2576109f1610f0e565b5b600083013567ffffffffffffffff811115610a1057610a0f610f09565b5b610a1c8582860161096b565b925050602083013567ffffffffffffffff811115610a3d57610a3c610f09565b5b610a498582860161096b565b9150509250929050565b600060208284031215610a6957610a68610f0e565b5b6000610a7784828501610999565b91505092915050565b610a8981610d2a565b82525050565b610a9881610d3c565b82525050565b610aa781610d72565b82525050565b6000610ab882610cb8565b610ac28185610cc3565b9350610ad2818560208601610d93565b610adb81610f13565b840191505092915050565b610aef81610d68565b82525050565b6000602082019050610b0a6000830184610a80565b92915050565b6000604082019050610b256000830185610a80565b610b326020830184610a8f565b9392505050565b6000602082019050610b4e6000830184610ae6565b92915050565b600060a082019050610b696000830188610ae6565b8181036020830152610b7b8187610aad565b90508181036040830152610b8f8186610aad565b9050610b9e6060830185610ae6565b610bab6080830184610a9e565b9695505050505050565b600060a082019050610bca6000830188610ae6565b8181036020830152610bdc8187610aad565b90508181036040830152610bf08186610aad565b9050610bff6060830185610ae6565b610c0c6080830184610ae6565b9695505050505050565b6000608082019050610c2b6000830187610ae6565b610c386020830186610ae6565b8181036040830152610c4a8185610aad565b9050610c596060830184610a80565b95945050505050565b6000610c6c610c7d565b9050610c788282610df8565b919050565b6000604051905090565b600067ffffffffffffffff821115610ca257610ca1610ed0565b5b610cab82610f13565b9050602081019050919050565b600081519050919050565b600082825260208201905092915050565b6000610cdf82610d68565b9150610cea83610d68565b9250827fffffffffffffffffffffffffffffffffffffffffffffffffffffffffffffffff03821115610d1f57610d1e610e72565b5b828201905092915050565b6000610d3582610d48565b9050919050565b60008115159050919050565b600073ffffffffffffffffffffffffffffffffffffffff82169050919050565b6000819050919050565b6000610d7d82610d68565b9050919050565b82818337600083830152505050565b60005b83811015610db1578082015181840152602081019050610d96565b83811115610dc0576000848401525b50505050565b60006002820490506001821680610dde57607f821691505b60208210811415610df257610df1610ea1565b5b50919050565b610e0182610f13565b810181811067ffffffffffffffff82111715610e2057610e1f610ed0565b5b80604052505050565b6000610e3482610d68565b91507fffffffffffffffffffffffffffffffffffffffffffffffffffffffffffffffff821415610e6757610e66610e72565b5b600182019050919050565b7f4e487b7100000000000000000000000000000000000000000000000000000000600052601160045260246000fd5b7f4e487b7100000000000000000000000000000000000000000000000000000000600052602260045260246000fd5b7f4e487b7100000000000000000000000000000000000000000000000000000000600052604160045260246000fd5b600080fd5b600080fd5b600080fd5b600080fd5b6000601f19601f8301169050919050565b610f2d81610d2a565b8114610f3857600080fd5b50565b610f4481610d68565b8114610f4f57600080fd5b5056fea26469706673582212207975a559aadcb3444d0ab9993060b616fe62322231eeb4cf7494f1cae47e253564736f6c634300080600334d696c6c6f6e6172696f2079206c6964657220646520646976657273617320656d70726573617320636f6d6f206573205445534c412079205370616365584d61657374726f206465204441572c2070726f6772616d6163696f6e20656e204a6176612e2054616d6269656e206573204a656665206465204573747564696f73506572736f6e6120636f6e20756e2070617472696d6f6e696f206e65746f20646520323031206d696c6573206465206d696c6c6f6e657320646520646f6c61726573556e2070656c6967726f2070617261206c6120696e666f726d6163696f6e20707269766164612c2063726561646f722064652046616365426f6f6b",
  "immutableReferences": {},
  "source": "// SPDX-License-Identifier: MIT\r\npragma solidity ^0.8.6;\r\n\r\ncontract VotacionContract{\r\n\r\n    uint256 public contadorParticipantes = 0;\r\n\r\n    //Creo un puestos por defecto\r\n    constructor(){\r\n        crearPuesto(\"Vico\", \"Maestro de DAW, programacion en Java. Tambien es Jefe de Estudios\");\r\n        crearPuesto(\"Elon Musk\", \"Millonario y lider de diversas empresas como es TESLA y SpaceX\");\r\n        crearPuesto(\"Jeff Bezos\", \"Persona con un patrimonio neto de 201 miles de millones de dolares\");\r\n        crearPuesto(\"Mark Zuckerberg\", \"Un peligro para la informacion privada, creador de FaceBook\");\r\n    }\r\n\r\n    //EVENTOS\r\n    event PersonasCreadas(\r\n        uint256 id,\r\n        string nombre,\r\n        string descripcion,\r\n        uint256 fechaCreacion,\r\n        uint256 votos\r\n    );\r\n\r\n    event PersonasVotadas(\r\n        uint id, \r\n        uint256 numeroVotos, \r\n        string nombre,\r\n        address addressFrom\r\n    );\r\n    //........\r\n\r\n    uint256 public contadorAddress = 0;\r\n\r\n    struct AddressStruct{\r\n        address addressAccount;\r\n    }\r\n\r\n    mapping (uint256 => AddressStruct) public addressAll;\r\n\r\n    //Estructura votos\r\n    struct VotacionStruct{\r\n        address addressAccount;\r\n        bool voto;\r\n    }\r\n\r\n    mapping (address => VotacionStruct) public votosAddress;\r\n\r\n    //Estructura de mi votacion\r\n    struct PersonasStruct{\r\n        uint256 id;\r\n        string nombre;\r\n        string descripcion;\r\n        uint256 fechaCreacion;\r\n        uint256 votos;\r\n    }\r\n\r\n    //mapping es como una lista con listas [0:{id=...},1:{id=..}]\r\n    mapping (uint256 => PersonasStruct) public personas;\r\n\r\n\r\n    //FUNCION PARA CREAR CANDIDATOS A SER VOTADOS\r\n    function crearPuesto(string memory nombre, string memory descripcion) public{\r\n        contadorParticipantes++;\r\n\r\n        personas[contadorParticipantes] = PersonasStruct(contadorParticipantes, nombre, descripcion,block.timestamp, 0);\r\n\r\n        emit PersonasCreadas(contadorParticipantes, nombre, descripcion,block.timestamp, 0);\r\n    }\r\n\r\n    //FUNCION PARA VOTACION\r\n    function votacionPersona(uint256 id) public{\r\n        PersonasStruct memory personaMod = personas[id];\r\n        \r\n        personaMod.votos = personaMod.votos + 1;\r\n\r\n        personas[id] = personaMod;\r\n\r\n\r\n        emit PersonasVotadas(id, personaMod.votos, personaMod.nombre, msg.sender);\r\n\r\n        addAddress(msg.sender);\r\n\r\n    }\r\n\r\n    //FUNCION PARA GUARDAR DIRECCIONES CADA VEZ QUE SE CONECTAN\r\n    function addAddress(address direccion) public{\r\n        votosAddress[direccion] = VotacionStruct(direccion, true);\r\n\r\n        recoverAllAddress(direccion);\r\n    }\r\n\r\n    function recoverAllAddress( address direccion) public{\r\n        contadorAddress++;\r\n        addressAll[contadorAddress]= AddressStruct(direccion);\r\n    }\r\n\r\n}",
  "sourcePath": "C:\\Users\\jesus\\Desktop\\Project DAPP\\contracts\\VotacionContract.sol",
  "compiler": {
    "name": "solc",
    "version": "0.8.6+commit.11564f7e.Emscripten.clang"
  },
  "schemaVersion": "3.4.3",
  "updatedAt": "2021-11-17T14:58:20.779Z",
  "networkType": "ethereum",
  "devdoc": {
    "kind": "dev",
    "methods": {},
    "version": 1
  },
  "userdoc": {
    "kind": "user",
    "methods": {},
    "version": 1
  }
}